:100000000C942A000C943C000C943C000C943C0092
:100010000C943C000C943C000C9465020C94FF0181
:100020000C9432020C94CC010C943C000C943C00D7
:100030000C943C000C943C000C943C000C943C0050
:100040000C943C000C943C000C943C000C943C0040
:100050000C943C0011241FBECFE5D8E0DEBFCDBF1D
:1000600010E0A0E6B0E001C01D92A836B107E1F7AC
:100070000E94AD060C94BF080C940000DF93CF9350
:10008000CDB7DEB7AEE4B0E0EEE4F0E080818061B1
:100090008C93AEE4B0E0EEE4F0E0808188608C9375
:1000A000AFE4B0E0EFE4F0E0808182608C93AFE4F5
:1000B000B0E0EFE4F0E080818E7F8C93AEE4B0E0BE
:1000C000EEE4F0E08081887F8C93AEE4B0E0EEE473
:1000D000F0E0808182608C93AFE4B0E0EFE4F0E088
:1000E00080818F738C93AFE4B0E0EFE4F0E0808127
:1000F00080688C93AFE4B0E0EFE4F0E080818F7C27
:100100008C93AFE4B0E0EFE4F0E0808180628C9308
:10011000CF91DF910895DF93CF9300D0CDB7DEB7B5
:100120009A838983EAE4F0E089819A8191838083CC
:100130000F900F90CF91DF910895DF93CF9300D070
:10014000CDB7DEB79A838983E8E4F0E089819A81AC
:10015000918380830F900F90CF91DF910895DF936B
:10016000CF9300D0CDB7DEB79A838983E6E4F0E081
:1001700089819A81918380830F900F90CF91DF9135
:100180000895DF93CF93CDB7DEB7A9E5B0E0E9E5F9
:10019000F0E0808184608C93CF91DF910895DF93AC
:1001A000CF93CDB7DEB7A9E5B0E0E9E5F0E0808117
:1001B0008B7F8C93CF91DF910895DF93CF93CDB751
:1001C000DEB7A9E5B0E0E9E5F0E0808180618C93DD
:1001D000CF91DF910895DF93CF93CDB7DEB7A9E537
:1001E000B0E0E9E5F0E080818F7E8C93CF91DF91E4
:1001F0000895DF93CF93CDB7DEB7A9E5B0E0E9E589
:10020000F0E0808188608C93CF91DF910895DF9337
:10021000CF93CDB7DEB7A9E5B0E0E9E5F0E08081A6
:10022000877F8C93CF91DF910895DF93CF9300D098
:10023000CDB7DEB79A838983ECE4F0E089819A81B7
:10024000918380830F900F90CF91DF910895DF937A
:10025000CF93CDB7DEB7ECE4F0E080819181CF9110
:10026000DF910895DF93CF93CDB7DEB7E6E4F0E0FA
:1002700080819181CF91DF910895DF93CF9300D05A
:100280000F92CDB7DEB789838981282F30E03B8379
:100290002A838A819B81009731F02A813B8121301A
:1002A000310549F00FC0AEE4B0E0EEE4F0E080814B
:1002B0008F7B8C9307C0AEE4B0E0EEE4F0E0808189
:1002C00080648C930F900F900F90CF91DF910895E1
:1002D000DF93CF93CDB7DEB7A9E5B0E0E9E5F0E075
:1002E000808180628C93CF91DF910895DF93CF93CB
:1002F000CDB7DEB7A9E5B0E0E9E5F0E080818F7D1C
:100300008C93CF91DF910895DF93CF9300D0CDB739
:10031000DEB79A83898389819A8190936100809363
:1003200060000F900F90CF91DF910895DF93CF93EE
:1003300000D0CDB7DEB79A83898389819A81909363
:100340006300809362000F900F90CF91DF9108952A
:10035000DF93CF9300D0CDB7DEB79A8389838981AD
:100360009A8190936500809364000F900F90CF91D5
:10037000DF910895DF93CF9300D0CDB7DEB79A8396
:10038000898389819A8190936700809366000F909A
:100390000F90CF91DF9108951F920F920FB60F9299
:1003A00011242F933F934F935F936F937F938F937A
:1003B0009F93AF93BF93EF93FF93DF93CF93CDB70B
:1003C000DEB78091600090916100009729F0E09184
:1003D0006000F09161000995CF91DF91FF91EF915D
:1003E000BF91AF919F918F917F916F915F914F914D
:1003F0003F912F910F900FBE0F901F9018951F9255
:100400000F920FB60F9211242F933F934F935F9348
:100410006F937F938F939F93AF93BF93EF93FF93CC
:10042000DF93CF93CDB7DEB78091620090916300E8
:10043000009729F0E0916200F09163000995CF9157
:10044000DF91FF91EF91BF91AF919F918F917F913C
:100450006F915F914F913F912F910F900FBE0F9031
:100460001F9018951F920F920FB60F9211242F9381
:100470003F934F935F936F937F938F939F93AF932C
:10048000BF93EF93FF93DF93CF93CDB7DEB7809108
:10049000640090916500009729F0E0916400F0916C
:1004A00065000995CF91DF91FF91EF91BF91AF91D9
:1004B0009F918F917F916F915F914F913F912F917C
:1004C0000F900FBE0F901F9018951F920F920FB6AE
:1004D0000F9211242F933F934F935F936F937F93CA
:1004E0008F939F93AF93BF93EF93FF93DF93CF933C
:1004F000CDB7DEB78091660090916700009729F034
:10050000E0916600F09167000995CF91DF91FF912E
:10051000EF91BF91AF919F918F917F916F915F917B
:100520004F913F912F910F900FBE0F901F901895F4
:10053000DF93CF93CDB7DEB781E066E041E00E9464
:10054000F202ADE2B0E0EDE2F0E080818F7E8C93CC
:10055000ADE2B0E0EDE2F0E0808180628C93ADE24C
:10056000B0E0EDE2F0E08081877F8C93ADE2B0E017
:10057000EDE2F0E0808184608C93ADE2B0E0EDE2EA
:10058000F0E0808181608C93ADE2B0E0EDE2F0E0DC
:10059000808182608C93AEE2B0E0EEE2F0E0808198
:1005A0008E7F8C93ADE2B0E0EDE2F0E0808180647C
:1005B0008C93CF91DF910895DF93CF930F92CDB7B6
:1005C000DEB78983EFE2F0E089818083EEE2F0E03C
:1005D00080818823DCF7EFE2F0E080810F90CF91FB
:1005E000DF910895DF93CF93CDB7DEB727970FB68E
:1005F000F894DEBF0FBECDBF89836A834B838B81A6
:10060000813009F06FC08981282F30E03F832E832D
:100610008E819F818130910549F12E813F81223069
:1006200031052CF48E819F81009761F0D2C02E811C
:100630003F812230310571F18E819F818330910598
:10064000E9F1C7C0AAE3B0E0EAE3F0E08081482F17
:100650008A81282F30E081E090E0022E02C0880FCE
:10066000991F0A94E2F7842B8C93B3C0A7E3B0E000
:10067000E7E3F0E08081482F8A81282F30E081E095
:1006800090E0022E02C0880F991F0A94E2F7842B93
:100690008C939FC0A4E3B0E0E4E3F0E08081482FB6
:1006A0008A81282F30E081E090E0022E02C0880F7E
:1006B000991F0A94E2F7842B8C938BC0A1E3B0E0DE
:1006C000E1E3F0E08081482F8A81282F30E081E04B
:1006D00090E0022E02C0880F991F0A94E2F7842B43
:1006E0008C9377C08B81882309F073C08981282F70
:1006F00030E03D832C838C819D818130910559F1BF
:100700002C813D81223031052CF48C819D81009714
:1007100069F05FC02C813D812230310589F18C81E7
:100720009D818330910509F440C053C0AAE3B0E035
:10073000EAE3F0E08081482F8A81282F30E081E0D1
:1007400090E0022E02C0880F991F0A94E2F780956C
:1007500084238C933EC0A7E3B0E0E7E3F0E0808120
:10076000482F8A81282F30E081E090E0022E02C0DD
:10077000880F991F0A94E2F7809584238C9329C0EF
:10078000A4E3B0E0E4E3F0E08081482F8A81282FE1
:1007900030E081E090E0022E02C0880F991F0A9499
:1007A000E2F7809584238C9314C0A1E3B0E0E1E3E9
:1007B000F0E08081482F8A81282F30E081E090E0AE
:1007C000022E02C0880F991F0A94E2F780958423B5
:1007D0008C9327960FB6F894DEBF0FBECDBFCF9196
:1007E000DF910895DF93CF93CDB7DEB727970FB68C
:1007F000F894DEBF0FBECDBF89836A834B838B81A4
:10080000813009F06FC08981282F30E03F832E832B
:100810008E819F818130910549F12E813F81223067
:1008200031052CF48E819F81009761F0D2C02E811A
:100830003F812230310571F18E819F818330910596
:10084000E9F1C7C0ABE3B0E0EBE3F0E08081482F13
:100850008A81282F30E081E090E0022E02C0880FCC
:10086000991F0A94E2F7842B8C93B3C0A8E3B0E0FD
:10087000E8E3F0E08081482F8A81282F30E081E092
:1008800090E0022E02C0880F991F0A94E2F7842B91
:100890008C939FC0A5E3B0E0E5E3F0E08081482FB2
:1008A0008A81282F30E081E090E0022E02C0880F7C
:1008B000991F0A94E2F7842B8C938BC0A2E3B0E0DB
:1008C000E2E3F0E08081482F8A81282F30E081E048
:1008D00090E0022E02C0880F991F0A94E2F7842B41
:1008E0008C9377C08B81882309F073C08981282F6E
:1008F00030E03D832C838C819D818130910559F1BD
:100900002C813D81223031052CF48C819D81009712
:1009100069F05FC02C813D812230310589F18C81E5
:100920009D818330910509F440C053C0ABE3B0E032
:10093000EBE3F0E08081482F8A81282F30E081E0CE
:1009400090E0022E02C0880F991F0A94E2F780956A
:1009500084238C933EC0A8E3B0E0E8E3F0E080811C
:10096000482F8A81282F30E081E090E0022E02C0DB
:10097000880F991F0A94E2F7809584238C9329C0ED
:10098000A5E3B0E0E5E3F0E08081482F8A81282FDD
:1009900030E081E090E0022E02C0880F991F0A9497
:1009A000E2F7809584238C9314C0A2E3B0E0E2E3E5
:1009B000F0E08081482F8A81282F30E081E090E0AC
:1009C000022E02C0880F991F0A94E2F780958423B3
:1009D0008C9327960FB6F894DEBF0FBECDBFCF9194
:1009E000DF910895DF93CF9300D000D00F92CDB761
:1009F000DEB78A836B8319828A81282F30E03D839A
:100A00002C834C815D814130510541F18C819D8168
:100A10008230910534F42C813D812115310561F03E
:100A200052C04C815D814230510551F18C819D81D4
:100A300083309105B9F147C0E9E3F0E08081282FC8
:100A400030E08B81882F90E0A90102C05595479531
:100A50008A95E2F7CA018170898335C0E6E3F0E048
:100A60008081282F30E08B81882F90E0A90102C07F
:100A7000559547958A95E2F7CA018170898323C00D
:100A8000E3E3F0E08081282F30E08B81882F90E035
:100A9000A90102C0559547958A95E2F7CA01817070
:100AA000898311C0E0E3F0E08081282F30E08B8162
:100AB000882F90E0A90102C0559547958A95E2F7E5
:100AC000CA018170898389810F900F900F900F90D8
:100AD0000F90CF91DF910895DF93CF9300D000D096
:100AE000CDB7DEB789836A838981282F30E03C83C4
:100AF0002B838B819C818130910549F12B813C8135
:100B0000223031052CF48B819C81009761F05AC012
:100B10002B813C812230310571F18B819C818330A6
:100B20009105E9F14FC0ABE3B0E0EBE3F0E0808189
:100B3000482F8A81282F30E081E090E0022E02C009
:100B4000880F991F0A94E2F784278C933BC0A8E38F
:100B5000B0E0E8E3F0E08081482F8A81282F30E080
:100B600081E090E0022E02C0880F991F0A94E2F7FC
:100B700084278C9327C0A5E3B0E0E5E3F0E0808113
:100B8000482F8A81282F30E081E090E0022E02C0B9
:100B9000880F991F0A94E2F784278C9313C0A2E36D
:100BA000B0E0E2E3F0E08081482F8A81282F30E036
:100BB00081E090E0022E02C0880F991F0A94E2F7AC
:100BC00084278C930F900F900F900F90CF91DF910F
:100BD0000895DF93CF9300D000D0CDB7DEB78983DF
:100BE0006A838981282F30E03C832B838B819C8111
:100BF00081309105D1F02B813C81223031052CF4DC
:100C00008B819C81009761F01EC02B813C8122303A
:100C1000310581F08B819C818330910581F013C077
:100C2000EAE3F0E08A8180830EC0E7E3F0E08A81A6
:100C3000808309C0E4E3F0E08A81808304C0E1E3BB
:100C4000F0E08A8180830F900F900F900F90CF91EA
:100C5000DF910895DF93CF9300D000D0CDB7DEB7FA
:100C600089836A838981282F30E03C832B838B81A1
:100C70009C8181309105D1F02B813C81223031055E
:100C80002CF48B819C81009761F01EC02B813C81EC
:100C90002230310581F08B819C818330910581F078
:100CA00013C0EBE3F0E08A8180830EC0E8E3F0E05C
:100CB0008A81808309C0E5E3F0E08A81808304C0F3
:100CC000E2E3F0E08A8180830F900F900F900F9005
:100CD000CF91DF910895DF93CF9300D000D0CDB7AF
:100CE000DEB78A8319828A81282F30E03C832B83E8
:100CF0008B819C8181309105D1F02B813C81223008
:100D000031052CF48B819C81009761F01EC02B81F2
:100D10003C812230310581F08B819C8183309105AB
:100D200081F013C0E9E3F0E0808189830EC0E6E33F
:100D3000F0E08081898309C0E3E3F0E0808189836A
:100D400004C0E0E3F0E08081898389810F900F90F7
:100D50000F900F90CF91DF910895DF93CF93CDB790
:100D6000DEB768970FB6F894DEBF0FBECDBF1A8608
:100D7000198618868FE097E29F838E831D821C82DE
:100D80008FE097E29B838A83198282E060E041E0F2
:100D90000E94F20282E061E041E00E94F20282E001
:100DA00062E041E00E94F20282E063E041E00E94E2
:100DB000F20283E064E041E00E94F20283E065E039
:100DC00041E00E94F2020E9498020E943E008FE1E0
:100DD0009EE40E94AF008FEF0E94DC028887888526
:100DE000813309F045C08FEF0E94DC028D838E8134
:100DF0009F810E948B0080E090E00E949D008D8189
:100E0000282F30E0388F2F8B8F89988D8233910572
:100E1000D1F02F89388D2333310539F18F89988DA1
:100E200081339105C1F68E819F8127E0813D920734
:100E300038F08E819F81805D97409F838E83CBCFDA
:100E40001F821E82C8CF8E819F8136E48F34930724
:100E500038F48E819F818053984F9F838E83BBCFC0
:100E60008FE19EE49F838E83B6CF1F821E82B3CF15
:100E70008885823309F046C08FEF0E94DC028C83A4
:100E80008A819B810E949D0080E090E00E948B00FF
:100E90008C81282F30E03E8B2D8B8D899E8982336B
:100EA0009105E9F02D893E892333310541F18D8982
:100EB0009E898133910509F08ECF8A819B8126E43A
:100EC0008F34920738F48A819B818053984F9B839B
:100ED0008A8381CF8FE19EE49B838A837CCF8A8142
:100EE0009B8137E0813D930738F08A819B81805D4B
:100EF00097409B838A836FCF1B821A826CCF1B82A1
:100F00001A8269CF8885833309F06EC08FEF0E9403
:100F1000DC0289838A819B810E949D008E819F8152
:100F20000E948B008981863038F48FE19EE49B8398
:100F30008A831F821E824FCF89818A3038F48FE7DF
:100F40009EE39B838A831F821E8245CF89818131E4
:100F500038F48FED9EE29B838A831F821E823BCFF3
:100F60008981853138F48FE697E19B838A831F82DC
:100F70001E8231CF8981883128F41B821A821F8218
:100F80001E8229CF8981883150F089818E3138F4D1
:100F90008FE99FE09F838E831B821A821CCF8981F9
:100FA000833250F489818E3138F08FE39FE19F8343
:100FB0008E831B821A820FCF8981883250F48981F7
:100FC000833238F08FED9EE29F838E831B821A82DC
:100FD00002CF8981883208F4FECE8FE19EE49F83A0
:100FE0008E831B821A82F7CE8885843309F0A6C0CF
:100FF0008FEF0E94DC0289878985282F30E03C8BA7
:101000002B8B8B899C8982339105C1F12B893C897B
:101010002333310534F48B899C898133910571F038
:10102000DACE2B893C892333310509F447C08B89FB
:101030009C898433910509F461C0CDCE8FEF0E9465
:10104000DC028A878A85282F30E03A8B298B8989B0
:101050009A898133910531F029893A892233310502
:1010600039F0B9CE82E060E041E00E94F203B3CEF5
:1010700082E060E040E00E94F203ADCE8FEF0E947C
:10108000DC028A878A85282F30E0388B2F878F856E
:1010900098898133910531F02F85388922333105C4
:1010A00039F099CE82E061E041E00E94F20393CEF4
:1010B00082E061E040E00E94F2038DCE8FEF0E945B
:1010C000DC028A878A85282F30E03E872D878D8530
:1010D0009E858133910531F02D853E852233310582
:1010E00039F079CE82E062E041E00E94F20373CEF3
:1010F00082E062E040E00E94F2036DCE8FEF0E943A
:10110000DC028A878A85282F30E03C872B878B85F5
:101110009C858133910531F02B853C852233310547
:1011200039F059CE82E063E041E00E94F20353CEF1
:1011300082E063E040E00E94F2034DCE8885853373
:1011400009F049CE82E063E040E00E94F20382E0D1
:1011500062E040E00E94F20382E061E040E00E9431
:10116000F20382E060E040E00E94F20380E090E061
:101170000E948B0080E090E00E949D002CCEF894AD
:02118000FFCF9F
:00000001FF
