:100000000C942A000C9447000C9447000C94470071
:100010000C9447000C9447000C9447000C94470044
:100020000C9447000C9447000C9447000C94470034
:100030000C9447000C9447000C9447000C94470024
:100040000C9447000C9447000C9447000C94470014
:100050000C94470011241FBECFE5D8E0DEBFCDBF12
:1000600011E0A0E6B0E0E8E6FFE402C005900D92E2
:10007000AC3DB107D9F711E0ACEDB1E001C01D9284
:10008000AE3DB107E1F70E9490170C94B2270C9493
:100090000000EF92FF920F931F937B018C0120E0F1
:1000A00030E040E05FE40E94F50388238CF0C80153
:1000B000B70120E030E040E05FE40E94C1010E940F
:1000C00055049B01AC01205030404040504806C0D0
:1000D000C801B7010E9455049B01AC01B901CA01D6
:1000E0001F910F91FF90EF900895A0E0B0E0EBE733
:1000F000F0E00C94AD24DC012B01FA019C919230CC
:1001000008F439C1EB018881823008F433C194309E
:1001100069F4843009F02FC111969C91119789815F
:10012000981709F428C1A1ECB1E025C1843009F485
:1001300021C18230A9F4923009F01DC19A01AD01AC
:1001400088E0EA010990AE01E90109929E0181501F
:10015000C1F7E201898111969C918923818308C1AD
:10016000923009F407C112962D903C901397EB0141
:100170008A819B811496AD90BD90CD90DC901797AD
:10018000EC80FD800E811F819101281B390BB90184
:1001900037FF04C066277727621B730B6032710537
:1001A0000CF061C0121613066CF537014801062EDB
:1001B00004C096948794779467940A94D2F721E0C8
:1001C00030E040E050E004C0220F331F441F551FB1
:1001D0006A95D2F721503040404050402E213F21B7
:1001E00040235123211531054105510521F021E01E
:1001F00030E040E050E079018A01E628F72808293C
:1002000019293CC0232BD1F1260E371E350146019A
:10021000062E04C096948794779467940A94D2F734
:1002200021E030E040E050E004C0220F331F441FC3
:10023000551F6A95D2F721503040404050402A2146
:100240003B214C215D21211531054105510521F04E
:1002500021E030E040E050E059016A01A628B728CB
:10026000C828D9280BC0821593052CF01C01AA249C
:10027000BB24650103C0EE24FF24870111969C91E5
:10028000D20111968C91981709F445C0992339F041
:10029000A80197012A193B094C095D0906C0A6016E
:1002A00095012E193F09400B510B57FD08C01182D3
:1002B0003382228224833583468357831DC081E0A5
:1002C00081833382228288279927DC01821B930B4A
:1002D000A40BB50B84839583A683B7830DC0220F2F
:1002E000331F441F551F24833583468357838281E0
:1002F000938101979383828324813581468157813D
:10030000DA01C9010197A109B1098F5F9F4FAF4F72
:10031000BF4328F30BC0918333822282EA0CFB1C7B
:100320000C1D1D1DE482F5820683178383E0808304
:10033000248135814681578157FF1AC0C901AA27F8
:1003400097FDA095BA2F81709070A070B0705695EF
:10035000479537952795822B932BA42BB52B848318
:100360009583A683B7838281938101969383828349
:10037000DF0101C0D201CD01CDB7DEB7E2E10C94BF
:10038000C924A0E2B0E0E7ECF1E00C94B924698361
:100390007A838B839C832D833E834F835887E9E048
:1003A000EE2EF12CEC0EFD1ECE010196B7010E943F
:1003B0007E058E010F5E1F4FCE010596B8010E948B
:1003C0007E058A8991E089278A8BC701B801AE0131
:1003D000475E5F4F0E9475000E94A904A096E6E068
:1003E0000C94D524A0E2B0E0E8EFF1E00C94B9243D
:1003F00069837A838B839C832D833E834F835887C5
:10040000F9E0EF2EF12CEC0EFD1ECE010196B701A6
:100410000E947E058E010F5E1F4FCE010596B8012A
:100420000E947E05C701B801AE01475E5F4F0E9482
:1004300075000E94A904A096E6E00C94D524A0E2E1
:10044000B0E0E5E2F2E00C94AD2469837A838B831B
:100450009C832D833E834F835887CE010196BE0136
:10046000675F7F4F0E947E05CE010596BE016F5EDD
:100470007F4F0E947E059985923088F0898982306D
:10048000C8F0943019F4823051F404C0843029F457
:10049000923081F481EC91E0C6C0923049F420E0C2
:1004A0009A858A89981321E02A87CE010996BBC0D4
:1004B000823049F420E09A858A89981321E02A8BBA
:1004C000CE014196B0C02D843E844F8458886D88FB
:1004D0007E888F88988CEE24FF248701AA24BB2471
:1004E000650140E050E060E070E0E0E0F0E0C10174
:1004F00081709070892BE9F0E60CF71C081D191D1E
:100500009A01AB012A0D3B1D4C1D5D1D80E090E062
:10051000A0E0B0E0E614F7040805190520F481E036
:1005200090E0A0E0B0E0BA01A901480F591F6A1F8E
:100530007B1FAA0CBB1CCC1CDD1C97FE08C081E0F5
:1005400090E0A0E0B0E0A82AB92ACA2ADB2A3196B6
:10055000E032F10549F0660C771C881C991C569412
:10056000479437942794C3CFFA85EA892B893C892D
:100570008B859C85280F391F2E5F3F4F17C0CA01FE
:1005800081709070892B61F016950795F794E79428
:1005900080E090E0A0E0B0E8E82AF92A0A2B1B2BC3
:1005A00076956795579547952F5F3F4F77FDE7CF36
:1005B0000CC0440F551F661F771F17FD4160EE0CDE
:1005C000FF1C001F111F21503040403090E05907A0
:1005D00090E0690790E4790760F32B8F3C8FDB0193
:1005E000CA018F779070A070B07080349105A1051A
:1005F000B10561F447FD0AC0E114F10401051105DC
:1006000029F0405C5F4F6F4F7F4F40781A8EFE1786
:1006100011F081E08A8F4D8F5E8F6F8F78A383E01A
:10062000898FCE0149960E94A904A096E2E10C941C
:10063000C924A8E1B0E0EFE1F3E00C94B5246983AC
:100640007A838B839C832D833E834F835887B9E0C5
:10065000EB2EF12CEC0EFD1ECE010196B7010E948F
:100660007E058E010F5E1F4FCE010596B8010E94D8
:100670007E052985223008F47EC03989323010F495
:10068000B8017CC08A859A8989278A87243011F02D
:10069000223031F4231709F06EC061EC71E06EC0B6
:1006A000343039F41D861E861F86188A1C861B86E8
:1006B00004C0323021F484E08987B7015FC02B8504
:1006C0003C858B899C89281B390B3C872B87ED84C3
:1006D000FE840F851889AD88BE88CF88D88CEA142F
:1006E000FB040C051D0540F4EE0CFF1C001F111F40
:1006F000215030403C872B8720E030E040E050E044
:1007000080E090E0A0E0B0E460E070E0EA14FB0478
:100710000C051D0540F0282B392B4A2B5B2BEA18C2
:10072000FB080C091D09B695A79597958795EE0CC2
:10073000FF1C001F111F6F5F7F4F6F31710531F775
:10074000DA01C9018F779070A070B0708034910584
:10075000A105B10561F427FD0AC0E114F10401050A
:10076000110529F0205C3F4F4F4F5F4F20782D87B8
:100770003E874F87588BBE01675F7F4FCB010E943A
:10078000A9046896EAE00C94D124A8E1B0E0EBEC6F
:10079000F3E00C94B92469837A838B839C832D8343
:1007A0003E834F83588789E0E82EF12CEC0EFD1E26
:1007B000CE010196B7010E947E058E010F5E1F4F8C
:1007C000CE010596B8010E947E058985823040F0F1
:1007D0008989823028F0C701B8010E94F60501C05E
:1007E0008FEF6896E6E00C94D524A8E1B0E0EBEF3B
:1007F000F3E00C94B92469837A838B839C832D83E3
:100800003E834F83588789E0E82EF12CEC0EFD1EC5
:10081000CE010196B7010E947E058E010F5E1F4F2B
:10082000CE010596B8010E947E058985823040F090
:100830008989823028F0C701B8010E94F60501C0FD
:100840008FEF6896E6E00C94D524A8E1B0E0EBE2E7
:10085000F4E00C94B92469837A838B839C832D8381
:100860003E834F83588789E0E82EF12CEC0EFD1E65
:10087000CE010196B7010E947E058E010F5E1F4FCB
:10088000CE010596B8010E947E058985823040F030
:100890008989823028F0C701B8010E94F60501C09D
:1008A00081E06896E6E00C94D524ACE0B0E0EBE59E
:1008B000F4E00C94BD2469837A838B839C83CE01FE
:1008C0000196BE016B5F7F4F0E947E058D81823055
:1008D00061F1823050F1843021F48E81882351F10E
:1008E0002EC02F81388537FD20C06E812F31310514
:1008F0001CF06623F9F023C08EE190E0821B930B7D
:1009000029853A854B855C8504C056954795379572
:1009100027958A95D2F76623B1F05095409530958A
:1009200021953F4F4F4F5F4F0EC020E030E040E039
:1009300050E009C02FEF3FEF4FEF5FE704C020E02A
:1009400030E040E050E8B901CA012C96E2E00C9496
:10095000D924DF92EF92FF920F931F93FC01E48062
:10096000F58006811781D1808081823048F480E053
:1009700090E0A0E1B0E0E82AF92A0A2B1B2BA5C0E1
:10098000843009F49FC0823021F4EE24FF248701D3
:1009900005C0E114F1040105110519F4E0E0F0E0EF
:1009A00096C0628173819FEF623879070CF05BC05B
:1009B00022E83FEF261B370B2A3131052CF020E0CF
:1009C00030E040E050E02AC0B801A701022E04C088
:1009D00076956795579547950A94D2F781E090E010
:1009E000A0E0B0E004C0880F991FAA1FBB1F2A9582
:1009F000D2F70197A109B1098E219F21A023B1232C
:100A00000097A105B10521F081E090E0A0E0B0E001
:100A10009A01AB01282B392B4A2B5B2BDA01C90138
:100A20008F779070A070B07080349105A105B105EA
:100A300039F427FF09C0205C3F4F4F4F5F4F04C080
:100A4000215C3F4F4F4F5F4FE0E0F0E02030A0E0EF
:100A50003A07A0E04A07A0E45A0710F0E1E0F0E00E
:100A600079018A0127C06038710564F5FB01E158FE
:100A7000FF4FD801C7018F779070A070B07080349D
:100A80009105A105B10539F4E7FE0DC080E490E0C1
:100A9000A0E0B0E004C08FE390E0A0E0B0E0E80E9A
:100AA000F91E0A1F1B1F17FF05C016950795F7941F
:100AB000E794319687E016950795F794E7948A9521
:100AC000D1F705C0EE24FF248701EFEFF0E06E2F91
:100AD000679566276795902F9F77D794DD24D794E5
:100AE0008E2F8695492F462B582F5D29B701CA01B5
:100AF0001F910F91FF90EF90DF900895FC01DB01B3
:100B0000408151812281622F6F7770E0221F22275E
:100B1000221F9381892F880F822B282F30E0991F65
:100B20009927991F11969C93119721153105A9F5C5
:100B3000411551056105710511F482E037C082E865
:100B40009FEF13969C938E9312979A01AB0167E0E7
:100B5000220F331F441F551F6A95D1F783E08C93F2
:100B60000DC0220F331F441F551F12968D919C916B
:100B70001397019713969C938E931297203080E0E1
:100B8000380780E0480780E4580758F314962D93FF
:100B90003D934D935C93179708952F3F310579F45A
:100BA000411551056105710519F484E08C93089590
:100BB00064FF03C081E08C9312C01C9210C02F57B9
:100BC000304013963C932E93129783E08C9387E0EA
:100BD000440F551F661F771F8A95D1F770641496CE
:100BE0004D935D936D937C93179708951F93DC014C
:100BF000FB019C91923008F447C08081823008F458
:100C000043C0943051F411961C91843099F5818140
:100C1000682F70E0611B71093FC0843021F0923071
:100C200031F48230B9F18181882389F12DC0119688
:100C30001C9111978230F1F081811817D9F4129626
:100C40002D913C911397828193818217930794F0A1
:100C500028173907BCF014968D919D910D90BC9189
:100C6000A02D2481358146815781281739074A07ED
:100C70005B0718F4112341F00AC082179307A407F9
:100C8000B50740F4112319F061E070E005C06FEF83
:100C90007FEF02C060E070E0CB011F910895DF9309
:100CA000CF93CDB7DEB7ADE2B0E0EDE2F0E080810A
:100CB00080618C9381E065E041E00E94D20781E091
:100CC00067E041E00E94D20781E064E041E00E94D9
:100CD000D20781E064E040E00E94D208ADE2B0E0DB
:100CE000EDE2F0E0808180628C93ADE2B0E0EDE275
:100CF000F0E08081877F8C93ADE2B0E0EDE2F0E040
:100D0000808184608C93ADE2B0E0EDE2F0E0808120
:100D100081608C93ADE2B0E0EDE2F0E08081826032
:100D20008C93AEE2B0E0EEE2F0E080818E7F8C93B7
:100D3000ADE2B0E0EDE2F0E0808180648C93CF9191
:100D4000DF910895DF93CF930F92CDB7DEB78983FC
:100D5000EFE2F0E089818083EEE2F0E08081882399
:100D6000DCF7EFE2F0E080810F90CF91DF91089502
:100D7000DF93CF93CDB7DEB7A1E2B0E0E1E2F0E0E0
:100D800080818E7F8C93A1E2B0E0E1E2F0E080818F
:100D90008D7F8C93E0E2F0E08CE08083A6E5B0E00C
:100DA000E6E5F0E0808180648C93A6E5B0E0E6E5BE
:100DB000F0E0808184608C93CF91DF910895DF9380
:100DC000CF930F92CDB7DEB78983E2E2F0E089815D
:100DD000880F8083A6E5B0E0E6E5F0E080818064DE
:100DE0008C93A6E5B0E0E6E5F0E0808184608C932A
:100DF0000F90CF91DF910895DF93CF93CDB7DEB7FA
:100E0000A6E5B0E0E6E5F0E0808180628C93A6E59F
:100E1000B0E0E6E5F0E0808180688C93E6E5F0E004
:100E200080818823DCF7CF91DF910895DF93CF9302
:100E3000CDB7DEB7A6E5B0E0E6E5F0E08081806101
:100E40008C93A6E5B0E0E6E5F0E0808180688C93C5
:100E5000CF91DF910895DF93CF930F92CDB7DEB797
:100E60008983E3E2F0E08981880F8083A3E2B0E028
:100E7000E3E2F0E080818E7F8C93A6E5B0E0E6E5CA
:100E8000F0E080818F7D8C93A6E5B0E0E6E5F0E0B0
:100E9000808180688C93E6E5F0E080818823DCF730
:100EA0000F90CF91DF910895DF93CF930F92CDB73D
:100EB000DEB78983E3E2F0E08981880F8083A3E2D3
:100EC000B0E0E3E2F0E0808181608C93A6E5B0E0E1
:100ED000E6E5F0E080818F7D8C93A6E5B0E0E6E565
:100EE000F0E0808180688C93E6E5F0E080818823E3
:100EF000DCF70F90CF91DF910895DF93CF930F929E
:100F0000CDB7DEB78983E3E2F0E089818083A6E58F
:100F1000B0E0E6E5F0E0808180688C93E6E5F0E003
:100F200080818823DCF70F90CF91DF910895DF93C4
:100F3000CF93CDB7DEB7A6E5B0E0E6E5F0E080817F
:100F400080688C93E6E5F0E080818823DCF7E3E2BB
:100F5000F0E08081CF91DF910895DF93CF93CDB7FB
:100F6000DEB7E1E2F0E08081882F90E0887F90702A
:100F700080369105B1F7A6E5B0E0E6E5F0E08081C6
:100F800080688C93E1E2F0E08081882F90E0887F98
:100F9000907080389105B1F7E3E2F0E08081CF9165
:100FA000DF910895DF93CF93CDB7DEB727970FB6C4
:100FB000F894DEBF0FBECDBF89836A834B838B81DC
:100FC000813009F06FC08981282F30E03F832E8364
:100FD0008E819F818130910549F12E813F812230A0
:100FE00031052CF48E819F81009761F0D2C02E8153
:100FF0003F812230310571F18E819F8183309105CF
:10100000E9F1C7C0AAE3B0E0EAE3F0E08081482F4D
:101010008A81282F30E081E090E0022E02C0880F04
:10102000991F0A94E2F7842B8C93B3C0A7E3B0E036
:10103000E7E3F0E08081482F8A81282F30E081E0CB
:1010400090E0022E02C0880F991F0A94E2F7842BC9
:101050008C939FC0A4E3B0E0E4E3F0E08081482FEC
:101060008A81282F30E081E090E0022E02C0880FB4
:10107000991F0A94E2F7842B8C938BC0A1E3B0E014
:10108000E1E3F0E08081482F8A81282F30E081E081
:1010900090E0022E02C0880F991F0A94E2F7842B79
:1010A0008C9377C08B81882309F073C08981282FA6
:1010B00030E03D832C838C819D818130910559F1F5
:1010C0002C813D81223031052CF48C819D8100974B
:1010D00069F05FC02C813D812230310589F18C811E
:1010E0009D818330910509F440C053C0AAE3B0E06C
:1010F000EAE3F0E08081482F8A81282F30E081E008
:1011000090E0022E02C0880F991F0A94E2F78095A2
:1011100084238C933EC0A7E3B0E0E7E3F0E0808156
:10112000482F8A81282F30E081E090E0022E02C013
:10113000880F991F0A94E2F7809584238C9329C025
:10114000A4E3B0E0E4E3F0E08081482F8A81282F17
:1011500030E081E090E0022E02C0880F991F0A94CF
:10116000E2F7809584238C9314C0A1E3B0E0E1E31F
:10117000F0E08081482F8A81282F30E081E090E0E4
:10118000022E02C0880F991F0A94E2F780958423EB
:101190008C9327960FB6F894DEBF0FBECDBFCF91CC
:1011A000DF910895DF93CF93CDB7DEB727970FB6C2
:1011B000F894DEBF0FBECDBF89836A834B838B81DA
:1011C000813009F06FC08981282F30E03F832E8362
:1011D0008E819F818130910549F12E813F8122309E
:1011E00031052CF48E819F81009761F0D2C02E8151
:1011F0003F812230310571F18E819F8183309105CD
:10120000E9F1C7C0ABE3B0E0EBE3F0E08081482F49
:101210008A81282F30E081E090E0022E02C0880F02
:10122000991F0A94E2F7842B8C93B3C0A8E3B0E033
:10123000E8E3F0E08081482F8A81282F30E081E0C8
:1012400090E0022E02C0880F991F0A94E2F7842BC7
:101250008C939FC0A5E3B0E0E5E3F0E08081482FE8
:101260008A81282F30E081E090E0022E02C0880FB2
:10127000991F0A94E2F7842B8C938BC0A2E3B0E011
:10128000E2E3F0E08081482F8A81282F30E081E07E
:1012900090E0022E02C0880F991F0A94E2F7842B77
:1012A0008C9377C08B81882309F073C08981282FA4
:1012B00030E03D832C838C819D818130910559F1F3
:1012C0002C813D81223031052CF48C819D81009749
:1012D00069F05FC02C813D812230310589F18C811C
:1012E0009D818330910509F440C053C0ABE3B0E069
:1012F000EBE3F0E08081482F8A81282F30E081E005
:1013000090E0022E02C0880F991F0A94E2F78095A0
:1013100084238C933EC0A8E3B0E0E8E3F0E0808152
:10132000482F8A81282F30E081E090E0022E02C011
:10133000880F991F0A94E2F7809584238C9329C023
:10134000A5E3B0E0E5E3F0E08081482F8A81282F13
:1013500030E081E090E0022E02C0880F991F0A94CD
:10136000E2F7809584238C9314C0A2E3B0E0E2E31B
:10137000F0E08081482F8A81282F30E081E090E0E2
:10138000022E02C0880F991F0A94E2F780958423E9
:101390008C9327960FB6F894DEBF0FBECDBFCF91CA
:1013A000DF910895DF93CF9300D000D00F92CDB797
:1013B000DEB78A836B8319828A81282F30E03D83D0
:1013C0002C834C815D814130510541F18C819D819F
:1013D0008230910534F42C813D812115310561F075
:1013E00052C04C815D814230510551F18C819D810B
:1013F00083309105B9F147C0E9E3F0E08081282FFF
:1014000030E08B81882F90E0A90102C05595479567
:101410008A95E2F7CA018170898335C0E6E3F0E07E
:101420008081282F30E08B81882F90E0A90102C0B5
:10143000559547958A95E2F7CA018170898323C043
:10144000E3E3F0E08081282F30E08B81882F90E06B
:10145000A90102C0559547958A95E2F7CA018170A6
:10146000898311C0E0E3F0E08081282F30E08B8198
:10147000882F90E0A90102C0559547958A95E2F71B
:10148000CA018170898389810F900F900F900F900E
:101490000F90CF91DF910895DF93CF9300D000D0CC
:1014A000CDB7DEB789836A838981282F30E03C83FA
:1014B0002B838B819C818130910549F12B813C816B
:1014C000223031052CF48B819C81009761F05AC049
:1014D0002B813C812230310571F18B819C818330DD
:1014E0009105E9F14FC0ABE3B0E0EBE3F0E08081C0
:1014F000482F8A81282F30E081E090E0022E02C040
:10150000880F991F0A94E2F784278C933BC0A8E3C5
:10151000B0E0E8E3F0E08081482F8A81282F30E0B6
:1015200081E090E0022E02C0880F991F0A94E2F732
:1015300084278C9327C0A5E3B0E0E5E3F0E0808149
:10154000482F8A81282F30E081E090E0022E02C0EF
:10155000880F991F0A94E2F784278C9313C0A2E3A3
:10156000B0E0E2E3F0E08081482F8A81282F30E06C
:1015700081E090E0022E02C0880F991F0A94E2F7E2
:1015800084278C930F900F900F900F90CF91DF9145
:101590000895DF93CF9300D000D0CDB7DEB7898315
:1015A0006A838981282F30E03C832B838B819C8147
:1015B00081309105D1F02B813C81223031052CF412
:1015C0008B819C81009761F01EC02B813C81223071
:1015D000310581F08B819C818330910581F013C0AE
:1015E000EAE3F0E08A8180830EC0E7E3F0E08A81DD
:1015F000808309C0E4E3F0E08A81808304C0E1E3F2
:10160000F0E08A8180830F900F900F900F90CF9120
:10161000DF910895DF93CF9300D000D0CDB7DEB730
:1016200089836A838981282F30E03C832B838B81D7
:101630009C8181309105D1F02B813C812230310594
:101640002CF48B819C81009761F01EC02B813C8122
:101650002230310581F08B819C818330910581F0AE
:1016600013C0EBE3F0E08A8180830EC0E8E3F0E092
:101670008A81808309C0E5E3F0E08A81808304C029
:10168000E2E3F0E08A8180830F900F900F900F903B
:10169000CF91DF910895DF93CF9300D000D0CDB7E5
:1016A000DEB78A8319828A81282F30E03C832B831E
:1016B0008B819C8181309105D1F02B813C8122303E
:1016C00031052CF48B819C81009761F01EC02B8129
:1016D0003C812230310581F08B819C8183309105E2
:1016E00081F013C0E9E3F0E0808189830EC0E6E376
:1016F000F0E08081898309C0E3E3F0E080818983A1
:1017000004C0E0E3F0E08081898389810F900F902D
:101710000F900F90CF91DF910895DF93CF93CDB7C6
:10172000DEB7A6E2B0E0E6E2F0E0808180688C936C
:10173000A7E2B0E0E7E2F0E0808180648C93A7E26A
:10174000B0E0E7E2F0E080818F778C93A7E2B0E031
:10175000E7E2F0E080818F7D8C93A6E2B0E0E6E2E4
:10176000F0E080818F7D8C93A6E2B0E0E6E2F0E0CD
:10177000808184608C93A6E2B0E0E6E2F0E08081B4
:1017800082608C93A6E2B0E0E6E2F0E080818E7F9A
:101790008C93CF91DF910895DF93CF930F92CDB7C4
:1017A000DEB78983A7E2B0E0E7E2F0E08081807EE7
:1017B0008C93A7E2B0E0E7E2F0E090818981892B89
:1017C0008C93A6E2B0E0E6E2F0E0808180648C9346
:1017D000E6E2F0E0808182958F70882F90E0817042
:1017E00090700097A9F3A6E2B0E0E6E2F0E0808115
:1017F00080618C93E4E2F0E0808191810F90CF9141
:10180000DF910895DF93CF930F92CDB7DEB7898331
:1018100081E061E040E00E94D20881E062E040E0C7
:101820000E94D20883E069810E940A0B0E94C414BE
:101830000F90CF91DF910895DF93CF930F92CDB7A3
:10184000DEB7898381E061E041E00E94D20881E057
:1018500062E040E00E94D20883E069810E940A0BA6
:101860000E94C4140F90CF91DF910895DF93CF931E
:1018700000D00F92CDB7DEB789836A834B838A810C
:101880006B810E94531589810E941C0C0F900F9050
:101890000F90CF91DF9108950F931F93DF93CF9314
:1018A000CDB7DEB7CC54D0400FB6F894DEBF0FBE34
:1018B000CDBF83E06FEF0E94C90A81E061E041E0A3
:1018C0000E94D20781E062E041E00E94D20781E0FD
:1018D00063E041E00E94D207FE01E75BFF4F80E03A
:1018E00090E0ACE0B2E480839183A283B3838E0165
:1018F0000B5B1F4FFE01E75BFF4F608171818281AF
:10190000938120E030E04AEF54E40E941F02DC01A2
:10191000CB01F80180839183A283B383FE01EB5B4B
:10192000FF4F608171818281938120E030E040E847
:101930005FE30E942504882344F4FE01ED5BFF4F22
:1019400081E090E09183808364C0FE01EB5BFF4FF8
:10195000608171818281938120E03FEF4FE757E4FE
:101960000E94C50318160CF043C0FE01E75BFF4F51
:10197000608171818281938120E030E040E251E416
:101980000E941F02DC01CB018E010D5B1F4FBC01C9
:10199000CD010E944900DC01CB01F80191838083D5
:1019A0001FC0FE01EF5BFF4F88EC90E091838083C6
:1019B000FE01EF5BFF4F808191810197F1F7FE01FE
:1019C000EF5BFF4F91838083DE01AD5BBF4FFE0174
:1019D000ED5BFF4F80819181019711969C938E93CF
:1019E000FE01ED5BFF4F808191810097D1F624C00D
:1019F0008E010D5B1F4FFE01EB5BFF4F608171811C
:101A0000828193810E944900DC01CB01F80191831E
:101A10008083FE01ED5BFF4F80819181FE01FF9687
:101A200091838083FE01FF96808191810197F1F778
:101A3000FE01FF969183808388E30E94020C80E080
:101A400090E0A8E4B2E48BAF9CAFADAFBEAF6BAD9E
:101A50007CAD8DAD9EAD2BEA3AEA4AE250E40E949D
:101A60001F02DC01CB018FAB98AFA9AFBAAF6FA952
:101A700078AD89AD9AAD20E030E040E85FE30E94A8
:101A8000250488231CF481E08EAB91C06FA978AD4A
:101A900089AD9AAD20E030E04FE753E40E94C503E2
:101AA00018160CF07BC06BAD7CAD8DAD9EAD20E00B
:101AB00030E04AE754E40E941903DC01CB018AAB11
:101AC0009BABACABBDAB6AA97BA98CA99DA920E05F
:101AD00030E04AEF54E40E941F02DC01CB018EA7E4
:101AE0009FA7A8ABB9AB6EA57FA588A999A920E04F
:101AF00030E040E85FE30E94250488232CF481E075
:101B000090E09DA78CA73FC06EA57FA588A999A945
:101B100020E03FEF4FE757E40E94C50318164CF54D
:101B20006AA97BA98CA99DA920E030E040E251E49C
:101B30000E941F02DC01CB01BC01CD010E944900C3
:101B4000DC01CB019DA78CA70FC088EC90E09BA780
:101B50008AA78AA59BA50197F1F79BA78AA78CA5C1
:101B60009DA501979DA78CA78CA59DA5009769F7BA
:101B700024C06EA57FA588A999A90E944900DC010F
:101B8000CB019DA78CA78CA59DA599A788A788A503
:101B900099A50197F1F799A788A70FC06FA978AD0C
:101BA00089AD9AAD0E944900DC01CB018EAB8EA9B4
:101BB0008FA38FA18A95F1F78FA38CE00E94020C6E
:101BC00080E090E0A8E4B2E48BA39CA3ADA3BEA305
:101BD0006BA17CA18DA19EA12BEA3AEA4AE250E4D6
:101BE0000E941F02DC01CB018F8F98A3A9A3BAA387
:101BF0006F8D78A189A19AA120E030E040E85FE3F1
:101C00000E94250488231CF481E08E8F91C06F8D83
:101C100078A189A19AA120E030E04FE753E40E9427
:101C2000C50318160CF07BC06BA17CA18DA19EA1F1
:101C300020E030E04AE754E40E941903DC01CB01C4
:101C40008A8F9B8FAC8FBD8F6A8D7B8D8C8D9D8D88
:101C500020E030E04AEF54E40E941F02DC01CB0197
:101C60008E8B9F8BA88FB98F6E897F89888D998D78
:101C700020E030E040E85FE30E94250488232CF454
:101C800081E090E09D8B8C8B3FC06E897F89888D31
:101C9000998D20E03FEF4FE757E40E94C5031816E7
:101CA0004CF56A8D7B8D8C8D9D8D20E030E040E27F
:101CB00051E40E941F02DC01CB01BC01CD010E9456
:101CC0004900DC01CB019D8B8C8B0FC088EC90E030
:101CD0009B8B8A8B8A899B890197F1F79B8B8A8BD7
:101CE0008C899D8901979D8B8C8B8C899D89009710
:101CF00069F724C06E897F89888D998D0E9449007B
:101D0000DC01CB019D8B8C8B8C899D89998B888B79
:101D1000888999890197F1F7998B888B0FC06F8D0E
:101D200078A189A19AA10E944900DC01CB018E8F84
:101D30008E8D8F878F858A95F1F78F8781E00E943E
:101D4000020C80E090E0A0EAB0E48B879C87AD872E
:101D5000BE876B857C858D859E8520E030E04AEFCF
:101D600054E40E941F02DC01CB018F839887A9876E
:101D7000BA876F81788589859A8520E030E040E8D0
:101D80005FE30E94250488232CF481E090E09E8389
:101D90008D833FC06F81788589859A8520E03FEFEC
:101DA0004FE757E40E94C50318164CF56B857C85F8
:101DB0008D859E8520E030E040E251E40E941F02C4
:101DC000DC01CB01BC01CD010E944900DC01CB014B
:101DD0009E838D830FC088EC90E09C838B838B81E6
:101DE0009C810197F1F79C838B838D819E81019764
:101DF0009E838D838D819E81009769F714C06F81CA
:101E0000788589859A850E944900DC01CB019E83F3
:101E10008D838D819E819A83898389819A8101979F
:101E2000F1F79A838983C45BDF4F0FB6F894DEBF66
:101E30000FBECDBFCF91DF911F910F910895DF931A
:101E4000CF9300D00F92CDB7DEB79B838A831982E0
:101E50000EC08981282F30E08A819B81FC01E20F2E
:101E6000F31F80810E941C0C89818F5F8983898187
:101E7000282F30E08A819B81FC01E20FF31F8081D3
:101E8000882339F70F900F900F90CF91DF9108952D
:101E9000DF93CF9300D000D00F92CDB7DEB79B83F6
:101EA0008A836C834D838C816D810E9453151982C6
:101EB0000EC08981282F30E08A819B81FC01E20FCE
:101EC000F31F80810E941C0C89818F5F8983898127
:101ED000282F30E08A819B81FC01E20FF31F808173
:101EE000882339F70F900F900F900F900F90CF919C
:101EF000DF910895DF93CF93CDB7DEB72F970FB65D
:101F0000F894DEBF0FBECDBF9D878C876E874F874D
:101F10008BE0FE013196DF01982F1D929A95E9F72B
:101F200000D000D000D0EDB7FEB73196CE010196BB
:101F30009183808380E690E0938382838C859D8566
:101F4000958384830E941125ADB7BEB716960FB650
:101F5000F894BEBF0FBEADBFCE0101966E854F8512
:101F60000E94480F2F960FB6F894DEBF0FBECDBF6C
:101F7000CF91DF910895DF93CF93CDB7DEB76E9702
:101F80000FB6F894DEBF0FBECDBF9B8F8A8F6C8FCC
:101F90004D8F2E8F8C8D882F90E00896880F991F7B
:101FA000880F991F880F991F0E94020C80E090E013
:101FB000A8E4B2E48D8B9E8BAF8BB88F6D897E8940
:101FC0008F89988D2BEA3AEA4AE250E40E941F0278
:101FD000DC01CB01898B9A8BAB8BBC8B69897A89AD
:101FE0008B899C8920E030E040E85FE30E94250473
:101FF00088231CF481E0888B91C069897A898B8958
:102000009C8920E030E04FE753E40E94C503181696
:102010000CF07BC06D897E898F89988D20E030E03F
:102020004AE754E40E941903DC01CB018C879D87A9
:10203000AE87BF876C857D858E859F8520E030E0EB
:102040004AEF54E40E941F02DC01CB018887998784
:10205000AA87BB87688579858A859B8520E030E0E3
:1020600040E85FE30E94250488232CF481E090E09F
:102070009F838E833FC0688579858A859B8520E014
:102080003FEF4FE757E40E94C50318164CF56C85E7
:102090007D858E859F8520E030E040E251E40E94FE
:1020A0001F02DC01CB01BC01CD010E944900DC0113
:1020B000CB019F838E830FC088EC90E09D838C833F
:1020C0008C819D810197F1F79D838C838E819F8107
:1020D00001979F838E838E819F81009769F724C02B
:1020E000688579858A859B850E944900DC01CB0142
:1020F0009F838E838E819F819B838A838A819B812C
:102100000197F1F79B838A830FC069897A898B894C
:102110009C890E944900DC01CB01888B88898983D6
:1021200089818A95F1F78983198E0EC0898D282FB0
:1021300030E08A8D9B8DFC01E20FF31F80810E94AD
:102140001C0C898D8F5F898F898D883078F38C8DF9
:102150006D8D4E8D0E94360C6E960FB6F894DEBFD4
:102160000FBECDBFCF91DF910895DF93CF93CDB751
:10217000DEB7E4970FB6F894DEBF0FBECDBF83E0A5
:1021800060E041E00E94D20783E061E041E00E940C
:10219000D20783E062E041E00E94D20783E063E07F
:1021A00041E00E94D20781E060E041E00E94D20756
:1021B00081E061E041E00E94D20781E062E041E01D
:1021C0000E94D20780E090E0A0EAB1E489AB9AAB2C
:1021D000ABABBCAB69A97AA98BA99CA920E030E084
:1021E0004AEF54E40E941F02DC01CB018DA79EA799
:1021F000AFA7B8AB6DA57EA58FA598A920E030E06C
:1022000040E85FE30E94250488232CF481E090E0FD
:102210009CA78BA73FC06DA57EA58FA598A920E0A0
:102220003FEF4FE757E40E94C50318164CF569A924
:102230007AA98BA99CA920E030E040E251E40E94F9
:102240001F02DC01CB01BC01CD010E944900DC0171
:10225000CB019CA78BA70FC088EC90E09AA789A719
:1022600089A59AA50197F1F79AA789A78BA59CA59F
:1022700001979CA78BA78BA59CA5009769F714C015
:102280006DA57EA58FA598A90E944900DC01CB0110
:102290009CA78BA78BA59CA598A78FA38FA198A57A
:1022A0000197F1F798A78FA388E30E94A81280E016
:1022B00090E0A0EAB0E48BA39CA3ADA3BEA36BA166
:1022C0007CA18DA19EA120E030E04AEF54E40E9461
:1022D0001F02DC01CB018F8F98A3A9A3BAA36F8D36
:1022E00078A189A19AA120E030E040E85FE30E9454
:1022F000250488232CF481E090E09E8F8D8F3FC0D1
:102300006F8D78A189A19AA120E03FEF4FE757E4B4
:102310000E94C50318164CF56BA17CA18DA19EA14E
:1023200020E030E040E251E40E941F02DC01CB01DA
:10233000BC01CD010E944900DC01CB019E8F8D8F35
:102340000FC088EC90E09C8F8B8F8B8D9C8D0197BC
:10235000F1F79C8F8B8F8D8D9E8D01979E8F8D8F2A
:102360008D8D9E8D009769F714C06F8D78A189A11E
:102370009AA10E944900DC01CB019E8F8D8F8D8D2B
:102380009E8D9A8F898F898D9A8D0197F1F79A8FFB
:10239000898F88E30E94A81280E090E0A6E1B3E470
:1023A0008D8B9E8BAF8BB88F6D897E898F89988D31
:1023B0002BEA3AEA4AE250E40E941F02DC01CB0118
:1023C000898B9A8BAB8BBC8B69897A898B899C8929
:1023D00020E030E040E85FE30E94250488231CF4FD
:1023E00081E0888B91C069897A898B899C8920E0FA
:1023F00030E04FE753E40E94C50318160CF07BC091
:102400006D897E898F89988D20E030E04AE754E419
:102410000E941903DC01CB018C879D87AE87BF87A3
:102420006C857D858E859F8520E030E04AEF54E401
:102430000E941F02DC01CB0188879987AA87BB878E
:10244000688579858A859B8520E030E040E85FE3F8
:102450000E94250488232CF481E090E09F838E83E2
:102460003FC0688579858A859B8520E03FEF4FE7EF
:1024700057E40E94C50318164CF56C857D858E8542
:102480009F8520E030E040E251E40E941F02DC0121
:10249000CB01BC01CD010E944900DC01CB019F832F
:1024A0008E830FC088EC90E09D838C838C819D810E
:1024B0000197F1F79D838C838E819F8101979F8384
:1024C0008E838E819F81009769F724C06885798506
:1024D0008A859B850E944900DC01CB019F838E8306
:1024E0008E819F819B838A838A819B810197F1F7EB
:1024F0009B838A830FC069897A898B899C890E9412
:102500004900DC01CB01888B8889898389818A9580
:10251000F1F7898388E30E94A81281E00E94A81243
:1025200082E00E94A81286E00E94A8128CE00E941D
:10253000A81288E20E94A81280E80E94A812E496DD
:102540000FB6F894DEBF0FBECDBFCF91DF910895D7
:10255000DF93CF930F92CDB7DEB7898381E061E03F
:1025600040E00E94D20881E062E040E00E94D20890
:10257000898182958F700E9494140E94C41489816D
:102580000E9494140E94C4140F90CF91DF9108957B
:10259000DF93CF930F92CDB7DEB7898381E061E0FF
:1025A00041E00E94D20881E062E040E00E94D2084F
:1025B000898182958F700E9494140E94C41489812D
:1025C0000E9494140E94C4140F90CF91DF9108953B
:1025D000DF93CF9300D00F92CDB7DEB789836A83A4
:1025E0004B838A816B810E94981589810E94C81251
:1025F0000F900F900F90CF91DF910895DF93CF93BD
:1026000000D00F92CDB7DEB79B838A8319820EC0AC
:102610008981282F30E08A819B81FC01E20FF31F22
:1026200080810E94C81289818F5F89838981282FC8
:1026300030E08A819B81FC01E20FF31F80818823B7
:1026400039F70F900F900F90CF91DF910895DF939E
:10265000CF9300D000D00F92CDB7DEB79B838A8393
:102660006C834D838C816D810E94981519820EC0F8
:102670008981282F30E08A819B81FC01E20FF31FC2
:1026800080810E94C81289818F5F89838981282F68
:1026900030E08A819B81FC01E20FF31F8081882357
:1026A00039F70F900F900F900F900F90CF91DF910F
:1026B0000895DF93CF93CDB7DEB72F970FB6F89479
:1026C000DEBF0FBECDBF9D878C876E874F878BE0A7
:1026D000FE013196DF01982F1D929A95E9F700D0FF
:1026E00000D000D0EDB7FEB73196CE0101969183B0
:1026F000808380E690E0938382838C859D8595839B
:1027000084830E941125ADB7BEB716960FB6F89414
:10271000BEBF0FBEADBFCE0101966E854F850E9434
:1027200027132F960FB6F894DEBF0FBECDBFCF9103
:10273000DF910895DF93CF93CDB7DEB76E970FB6D5
:10274000F894DEBF0FBECDBF9B8F8A8F6C8F4D8FED
:102750002E8F8C8D882F90E00896880F991F880FF8
:10276000991F880F991F0E94A81280E090E0A8E4AA
:10277000B2E48D8B9E8BAF8BB88F6D897E898F89EC
:10278000988D2BEA3AEA4AE250E40E941F02DC01EB
:10279000CB01898B9A8BAB8BBC8B69897A898B89AE
:1027A0009C8920E030E040E85FE30E942504882314
:1027B0001CF481E0888B91C069897A898B899C8916
:1027C00020E030E04FE753E40E94C50318160CF0F8
:1027D0007BC06D897E898F89988D20E030E04AE743
:1027E00054E40E941903DC01CB018C879D87AE87DE
:1027F000BF876C857D858E859F8520E030E04AEF20
:1028000054E40E941F02DC01CB0188879987AA87C4
:10281000BB87688579858A859B8520E030E040E824
:102820005FE30E94250488232CF481E090E09F83DD
:102830008E833FC0688579858A859B8520E03FEF40
:102840004FE757E40E94C50318164CF56C857D854B
:102850008E859F8520E030E040E251E40E941F0217
:10286000DC01CB01BC01CD010E944900DC01CB01A0
:102870009F838E830FC088EC90E09D838C838C8136
:102880009D810197F1F79D838C838E819F810197B4
:102890009F838E838E819F81009769F724C068850E
:1028A00079858A859B850E944900DC01CB019F8345
:1028B0008E838E819F819B838A838A819B810197EE
:1028C000F1F79B838A830FC069897A898B899C89F8
:1028D0000E944900DC01CB01888B8889898389812A
:1028E0008A95F1F78983198E0EC0898D282F30E0E3
:1028F0008A8D9B8DFC01E20FF31F80810E94C8121C
:10290000898D8F5F898F898D883078F38C8D6D8D5F
:102910004E8D0E94E8126E960FB6F894DEBF0FBE81
:10292000CDBFCF91DF910895DF93CF930F92CDB7B5
:10293000DEB789838981982F917083E060E0492F09
:102940000E94D20889818695982F917083E061E07A
:10295000492F0E94D208898186958695982F91707B
:1029600083E062E0492F0E94D2088981869586958E
:102970008695982F917083E063E0492F0E94D208DA
:102980000F90CF91DF910895DF93CF93CDB7DEB74E
:102990002E970FB6F894DEBF0FBECDBF81E063E087
:1029A00041E00E94D20880E090E0A0E8BFE38B877E
:1029B0009C87AD87BE876B857C858D859E8520E055
:1029C00030E04AEF54E40E941F02DC01CB018F8308
:1029D0009887A987BA876F81788589859A8520E04D
:1029E00030E040E85FE30E94250488232CF481E076
:1029F00090E09E838D833FC06F81788589859A851D
:102A000020E03FEF4FE757E40E94C50318164CF54E
:102A10006B857C858D859E8520E030E040E251E429
:102A20000E941F02DC01CB01BC01CD010E944900C4
:102A3000DC01CB019E838D830FC088EC90E09C83EA
:102A40008B838B819C810197F1F79C838B838D8194
:102A50009E8101979E838D838D819E81009769F76A
:102A600014C06F81788589859A850E944900DC01B0
:102A7000CB019E838D838D819E819A8389838981F9
:102A80009A810197F1F79A83898381E063E040E0BE
:102A90000E94D2082E960FB6F894DEBF0FBECDBFAF
:102AA000CF91DF910895DF93CF9300D000D0CDB7C1
:102AB000DEB789836A838A8181508A838981282F3E
:102AC00030E03C832B838B819C8182309105D9F04F
:102AD0002B813C812330310534F48B819C81813002
:102AE000910561F01EC02B813C812330310581F0BE
:102AF0008B819C818430910581F013C08A8180583C
:102B00000E94020C0EC08A8180540E94020C09C0EF
:102B10008A818C560E94020C04C08A818C520E94C9
:102B2000020C0F900F900F900F90CF91DF910895AE
:102B3000DF93CF9300D000D0CDB7DEB789836A830F
:102B40008A8181508A838981282F30E03C832B83BE
:102B50008B819C818130910531F02B813C81223029
:102B6000310531F009C08A8180580E94A81204C042
:102B70008A8180540E94A8120F900F900F900F909E
:102B8000CF91DF910895DF93CF93CDB7DEB780E08B
:102B90006FE00E94C90A80E06FEF0E940A0BCF919C
:102BA000DF910895DF93CF93CDB7DEB763970FB66C
:102BB000F894DEBF0FBECDBF1B8A1A8A198A188A05
:102BC0008FEF8F871B8ADBC08B89882F90E0FC01F9
:102BD000EB52FE4F908180E0692F40E00E94D208C6
:102BE0001A8AA4C08A89882F90E0FC01E752FE4F20
:102BF000908180E0692F0E94D209898B898988237E
:102C000009F091C080E090E0A0EAB1E48B879C8756
:102C1000AD87BE876B857C858D859E8520E030E005
:102C20004AEF54E40E941F02DC01CB018F83988796
:102C3000A987BA876F81788589859A8520E030E0F9
:102C400040E85FE30E94250488232CF481E090E0B3
:102C50009E838D833FC06F81788589859A8520E02A
:102C60003FEF4FE757E40E94C50318164CF56B85FC
:102C70007C858D859E8520E030E040E251E40E9415
:102C80001F02DC01CB01BC01CD010E944900DC0127
:102C9000CB019E838D830FC088EC90E09C838B8357
:102CA0008B819C810197F1F79C838B838D819E8121
:102CB00001979E838D838D819E81009769F714C053
:102CC0006F81788589859A850E944900DC01CB0156
:102CD0009E838D838D819E819A83898389819A8148
:102CE0000197F1F79A8389838A89882F90E0FC0104
:102CF000E752FE4F908180E0692F0E94D209898BB4
:102D00000CC08A89882F90E0FC01E752FE4F908129
:102D100080E0692F0E94D209898B8989882389F3F1
:102D200081E0888B07C08A898F5F8A8B8A8983308C
:102D300008F458CF8B89882F90E0FC01EB52FE4FAE
:102D4000908180E0692F41E00E94D208888981301B
:102D500099F48B89282F30E08A89482F50E0C901E7
:102D6000880F991F820F931F840F951FFC01E75353
:102D7000FE4F80818F8707C08B898F5F8B8B8B89FC
:102D8000843008F421CF8F8563960FB6F894DEBFA8
:102D90000FBECDBFCF91DF910895DF93CF93CDB715
:102DA000DEB761970FB6F894DEBF0FBECDBF8F8739
:102DB000798B688B0E94FC0688899989892F9927CD
:102DC00080650E942B0788890E947D078F850E945D
:102DD0007D070E94160780E090E0A0E2B1E48B87B7
:102DE0009C87AD87BE876B857C858D859E8520E021
:102DF00030E04AEF54E40E941F02DC01CB018F83D4
:102E00009887A987BA876F81788589859A8520E018
:102E100030E040E85FE30E94250488232CF481E041
:102E200090E09E838D833FC06F81788589859A85E8
:102E300020E03FEF4FE757E40E94C50318164CF51A
:102E40006B857C858D859E8520E030E040E251E4F5
:102E50000E941F02DC01CB01BC01CD010E94490090
:102E6000DC01CB019E838D830FC088EC90E09C83B6
:102E70008B838B819C810197F1F79C838B838D8160
:102E80009E8101979E838D838D819E81009769F736
:102E900014C06F81788589859A850E944900DC017C
:102EA000CB019E838D838D819E819A8389838981C5
:102EB0009A810197F1F79A83898361960FB6F89406
:102EC000DEBF0FBECDBFCF91DF910895DF93CF93CB
:102ED00000D00F92CDB7DEB79B838A8319820E9400
:102EE000FC068A819B81892F992780650E942B0788
:102EF0008A810E947D070E94FC068A819B81892F1E
:102F0000992780650E9454070E94970789830E9431
:102F1000160789810F900F900F90CF91DF91089540
:102F20000F931F93DF93CF93CDB7DEB7C559D04032
:102F30000FB6F894DEBF0FBECDBFFE01E758FF4FBE
:102F40001082CE0186589F4F24E1FC01DF01322F11
:102F50001D923A95E9F7FE01E958FF4F1182108260
:102F6000FE01EA58FF4F1082FE01EB58FF4F83E04D
:102F70008083FE01E257FF4F1082FE01E157FF4FB1
:102F80001082FE01E057FF4F87E18083FE01EF567C
:102F9000FF4F85E08083FE01ED58FF4F11821082C4
:102FA000FE01EF58FF4F11821082FE01EE56FF4FD7
:102FB0001182108282E067E041E00E94D2070E9405
:102FC0004C0C0E94C3150E948D0B0E944F060E945C
:102FD000B80687E00E94CC0BFE01ED58FF4F9183AD
:102FE0008083FE01ED58FF4F80819181CC01A0E0EC
:102FF000B0E028E833E140E050E0BC01CD010E94A0
:103000005824DC01CB012FEF30E040E050E0BC0160
:10301000CD010E948B24DA01C901FE01EF58FF4F58
:1030200091838083FE01EF58FF4F8081918128E2D8
:1030300030E0B9010E947724CB01FE01EE56FF4F2C
:103040009183808380E090E00E9466178F3F09F4AF
:10305000C2C5FE01E257FF4F8081882361F483E6F9
:1030600090E061E041E00E94480F0E94D215FE010D
:10307000E758FF4F8083FE01E758FF4F80818D3373
:1030800039F0FE01E257FF4F8081882309F4DFC445
:10309000CE0186589F4F0E94E424FE01E958FF4F5D
:1030A0009183808380E090E00E946617282F30E0B3
:1030B000FE01E958FF4F808191812817390739F0C7
:1030C000FE01E257FF4F8081882309F40CC3FE0103
:1030D000E257FF4F8081882309F07DC181E00E9483
:1030E000020CFE01E359FF4F80E090E0A8E4B2E457
:1030F00080839183A283B3838E0107591F4FFE0102
:10310000E359FF4F608171818281938120E030E03B
:103110004AEF54E40E941F02DC01CB01F8018083D6
:103120009183A283B383FE01E759FF4F60817181D0
:103130008281938120E030E040E85FE30E94250433
:10314000882344F4FE01E959FF4F81E090E0918328
:10315000808364C0FE01E759FF4F608171818281E5
:10316000938120E03FEF4FE757E40E94C503181614
:103170000CF043C0FE01E359FF4F608171818281F1
:10318000938120E030E040E251E40E941F02DC0124
:10319000CB018E0109591F4FBC01CD010E9449008E
:1031A000DC01CB01F801918380831FC0FE01EB5944
:1031B000FF4F88EC90E091838083FE01EB59FF4F35
:1031C000808191810197F1F7FE01EB59FF4F9183C7
:1031D0008083DE01A959BF4FFE01E959FF4F80816D
:1031E0009181019711969C938E93FE01E959FF4FAF
:1031F000808191810097D1F627C08E0109591F4F18
:10320000FE01E759FF4F60817181828193810E94A5
:103210004900DC01CB01F80191838083DE01AD59C7
:10322000BF4FFE01E959FF4F808191818D939C939F
:10323000FE01ED59FF4F808191810197F1F7FE0169
:10324000ED59FF4F9183808384E790E061E047E090
:103250000E94480FFE01E15AFF4F80E090E0AAEF84
:10326000B3E480839183A283B3838E01055A1F4FF9
:10327000FE01E15AFF4F608171818281938120E0DC
:1032800030E04AEF54E40E941F02DC01CB01F80158
:1032900080839183A283B383FE01E55AFF4F60814F
:1032A00071818281938120E030E040E85FE30E94F9
:1032B0002504882344F4FE01E75AFF4F81E090E0A3
:1032C0009183808364C0FE01E55AFF4F6081718164
:1032D0008281938120E03FEF4FE757E40E94C503CE
:1032E00018160CF043C0FE01E15AFF4F6081718156
:1032F0008281938120E030E040E251E40E941F028D
:10330000DC01CB018E01075A1F4FBC01CD010E9489
:103310004900DC01CB01F801918380831FC0FE01CD
:10332000E95AFF4F88EC90E091838083FE01E95ACF
:10333000FF4F808191810197F1F7FE01E95AFF4F1C
:1033400091838083DE01A75ABF4FFE01E75AFF4FEA
:1033500080819181019711969C938E93FE01E75A8B
:10336000FF4F808191810097D1F627C08E01075AC7
:103370001F4FFE01E55AFF4F608171818281938169
:103380000E944900DC01CB01F80191838083DE01BA
:10339000AB5ABF4FFE01E75AFF4F808191818D9359
:1033A0009C93FE01EB5AFF4F808191810197F1F7C9
:1033B000FE01EB5AFF4F91838083FE01EB58FF4FD4
:1033C00083E08083FE01E257FF4F81E0808381E04C
:1033D0000E94020C2EC3FE01E257FF4F8081813014
:1033E00021F58CE790E061E041E00E94480F8EE813
:1033F00090E062E041E00E94480F87E990E063E0DE
:1034000041E00E94480F82EA90E064E041E00E94BF
:10341000480F8AEA90E064E04DE00E94480F0E9465
:10342000D215FE01E157FF4F8083FE01E157FF4FA8
:1034300080810E94A206FE01E157FF4F8081282F64
:1034400030E0CC56DF4F39832883C459D040CC5666
:10345000DF4F88819981C459D0408333910509F4A5
:1034600049C0CC56DF4FA881B981C459D040A4339C
:10347000B1059CF4CC56DF4FE881F981C459D040A6
:10348000E133F105E9F0CC56DF4F28813981C45989
:10349000D0402233310509F161C0CC56DF4F88811D
:1034A0009981C459D04084339105C9F1CC56DF4F7E
:1034B000A881B981C459D040A533B105D1F14EC01E
:1034C000CE0180579F4F9E0122573F4FAE0141577B
:1034D0005F4FB9010E94E01EACC2CE018F569F4FD4
:1034E0009E0122573F4FAE0141575F4FB9010E94E5
:1034F000F91F9FC2CE0182579F4F9E0121573F4F18
:10350000AE014F565F4FFE01E057FF4FDE01AE5652
:10351000BF4FB9019F018D010E9420218AC2CE01B7
:1035200082579F4F9E0121573F4FB9010E94902221
:1035300080C281E00E94020CFE01EA58FF4F108217
:10354000CE0186589F4F60E070E044E150E00E9459
:103550000225FE01E257FF4F10826BC2FE01E157C8
:10356000FF4F80818F3F09F464C281E00E94020C0A
:1035700081EB90E061E041E00E94480FFE01EF5ACC
:10358000FF4F80E090E0AFE2B4E480839183A283B8
:10359000B3838E01035B1F4FFE01EF5AFF4F608123
:1035A00071818281938120E030E04AEF54E40E94EF
:1035B0001F02DC01CB01F80180839183A283B383D6
:1035C000FE01E35BFF4F608171818281938120E086
:1035D00030E040E85FE30E942504882344F4FE01C4
:1035E000E55BFF4F81E090E09183808364C0FE0142
:1035F000E35BFF4F608171818281938120E03FEF27
:103600004FE757E40E94C50318160CF043C0FE01B3
:10361000EF5AFF4F608171818281938120E030E019
:1036200040E251E40E941F02DC01CB018E01055BE8
:103630001F4FBC01CD010E944900DC01CB01F80104
:10364000918380831FC0FE01E75BFF4F88EC90E011
:1036500091838083FE01E75BFF4F80819181019719
:10366000F1F7FE01E75BFF4F91838083DE01A55BED
:10367000BF4FFE01E55BFF4F80819181019711965D
:103680009C938E93FE01E55BFF4F808191810097B3
:10369000D1F6CFC18E01055B1F4FFE01E35BFF4FEB
:1036A00060817181828193810E944900DC01CB019C
:1036B000F80191838083DE01A95BBF4FFE01E55BCA
:1036C000FF4F8081918111969C938E93FE01E95B5F
:1036D000FF4F808191810197F1F7FE01E95BFF4F78
:1036E00091838083A6C1DE01AB58BF4FFE01EB582A
:1036F000FF4F808181508C9381E00E94020CFE017B
:10370000ED5BFF4F80E090E0A8E4B2E4808391831A
:10371000A283B3838E01015C1F4FFE01ED5BFF4F5F
:10372000608171818281938120E030E04AEF54E42E
:103730000E941F02DC01CB01F80180839183A283E8
:10374000B383FE01FF96608171818281938120E0C5
:1037500030E040E85FE30E94250488232CF481E0F8
:1037600090E09EAF8DAF46C0FE01FF9660817181F3
:103770008281938120E03FEF4FE757E40E94C50329
:10378000181664F5FE01ED5BFF4F60817181828147
:10379000938120E030E040E251E40E941F02DC010E
:1037A000CB01BC01CD010E944900DC01CB019EAFE1
:1037B0008DAF0FC088EC90E09CAF8BAF8BAD9CAD14
:1037C0000197F1F79CAF8BAF8DAD9EAD01979EAF8A
:1037D0008DAF8DAD9EAD009769F716C0FE01FF96C7
:1037E00060817181828193810E944900DC01CB015B
:1037F0009EAF8DAF8DAD9EAD9AAF89AF89AD9AADBD
:103800000197F1F79AAF89AFFE01EB58FF4F808126
:1038100088230CF082C081E00E94020C80EC90E0D2
:1038200061E041E00E94480F8EEC90E062E041E0F0
:103830000E94480F80E090E4ACE9B6E48DAB9EAB0B
:10384000AFABB8AF6DA97EA98FA998AD20E030E0ED
:103850004AEF54E40E941F02DC01CB0189AB9AAB12
:10386000ABABBCAB69A97AA98BA99CA920E030E0DD
:1038700040E85FE30E94250488232CF481E090E077
:1038800098AB8FA73FC069A97AA98BA99CA920E012
:103890003FEF4FE757E40E94C50318164CF56DA99A
:1038A0007EA98FA998AD20E030E040E251E40E946B
:1038B0001F02DC01CB01BC01CD010E944900DC01EB
:1038C000CB0198AB8FA70FC088EC90E09EA78DA787
:1038D0008DA59EA50197F1F79EA78DA78FA598A905
:1038E000019798AB8FA78FA598A9009769F7A1C0FA
:1038F00069A97AA98BA99CA90E944900DC01CB0186
:1039000098AB8FA78FA598A99CA78BA78BA59CA5E3
:103910000197F1F79CA78BA78CC08DED90E061E03B
:1039200046E00E94480FFE01EB58FF4F8081992727
:1039300087FD909562E043E00E947A0F88EE90E068
:1039400062E046E00E94480F80E090E0A8E4B4E422
:103950008FA398A7A9A7BAA76FA178A589A59AA5AB
:1039600020E030E04AEF54E40E941F02DC01CB016A
:103970008BA39CA3ADA3BEA36BA17CA18DA19EA193
:1039800020E030E040E85FE30E94250488232CF427
:1039900081E090E09AA389A33FC06BA17CA18DA197
:1039A0009EA120E03FEF4FE757E40E94C5031816A1
:1039B0004CF56FA178A589A59AA520E030E040E2FA
:1039C00051E40E941F02DC01CB01BC01CD010E9429
:1039D0004900DC01CB019AA389A30FC088EC90E0D9
:1039E00098A38F8F8F8D98A10197F1F798A38F8F50
:1039F00089A19AA101979AA389A389A19AA1009765
:103A000069F714C06BA17CA18DA19EA10E94490001
:103A1000DC01CB019AA389A389A19AA19E8F8D8FE6
:103A20008D8D9E8D0197F1F79E8F8D8F81E00E9485
:103A3000020CFE01EA58FF4F1082CE0186589F4FBC
:103A400060E070E044E150E00E940225A5C1FE0163
:103A5000E758FF4F8081833689F481E00E94020C91
:103A6000FE01EA58FF4F1082CE0186589F4F60E05A
:103A700070E044E150E00E9402258EC1FE01E7584B
:103A8000FF4F80818F3F09F487C1FE01EA58FF4F45
:103A90008081982F9F5FFE01E758FF4F808162E091
:103AA000492F0E94360CFE01EA58FF4F8081282FD3
:103AB00030E0CE0186589F4FDC01A20FB31FFE01FC
:103AC000E758FF4F80818C9380E090E0A8E4B3E456
:103AD000898F9A8FAB8FBC8F698D7A8D8B8D9C8DE2
:103AE00020E030E04AEF54E40E941F02DC01CB01E9
:103AF0008D8B9E8BAF8BB88F6D897E898F89988DCA
:103B000020E030E040E85FE30E94250488232CF4A5
:103B100081E090E09C8B8B8B3FC06D897E898F8983
:103B2000988D20E03FEF4FE757E40E94C503181639
:103B30004CF5698D7A8D8B8D9C8D20E030E040E2D4
:103B400051E40E941F02DC01CB01BC01CD010E94A7
:103B50004900DC01CB019C8B8B8B0FC088EC90E083
:103B60009A8B898B89899A890197F1F79A8B898B2E
:103B70008B899C8901979C8B8B8B8B899C89009767
:103B800069F714C06D897E898F89988D0E944900DC
:103B9000DC01CB019C8B8B8B8B899C89988B8F87CD
:103BA0008F8598890197F1F7988B8F87FE01EA58E6
:103BB000FF4F8081982F9F5F8AE262E0492F0E9429
:103BC000360CDE01AA58BF4FFE01EA58FF4F808134
:103BD0008F5F8C93E1C084EF90E061E041E00E9450
:103BE000480F0E94D215FE01E758FF4F8083FE0167
:103BF000E758FF4F80818D3319F5FE01EA58FF4FDA
:103C00001082CE0186589F4F0E94E424FE01E9589D
:103C1000FF4F91838083FE01E958FF4F808160E070
:103C200070E00E94CD1681E00E94020CCE01865801
:103C30009F4F60E070E044E150E00E940225ACC07C
:103C4000FE01E758FF4F80818F3F09F4A5C0FE01B8
:103C5000EA58FF4F8081982F9F5FFE01E758FF4F82
:103C6000808162E0492F0E94360CFE01EA58FF4F26
:103C70008081282F30E0CE0186589F4FDC01A20FB3
:103C8000B31FFE01E758FF4F80818C9380E090E0E6
:103C9000A8E4B3E48B879C87AD87BE876B857C8562
:103CA0008D859E8520E030E04AEF54E40E941F029B
:103CB000DC01CB018F839887A987BA876F817885CC
:103CC00089859A8520E030E040E85FE30E94250482
:103CD00088232CF481E090E09E838D833FC06F8128
:103CE000788589859A8520E03FEF4FE757E40E9469
:103CF000C50318164CF56B857C858D859E8520E067
:103D000030E040E251E40E941F02DC01CB01BC0123
:103D1000CD010E944900DC01CB019E838D830FC041
:103D200088EC90E09C838B838B819C810197F1F7D9
:103D30009C838B838D819E8101979E838D838D8152
:103D40009E81009769F714C06F81788589859A856F
:103D50000E944900DC01CB019E838D838D819E8171
:103D60009A83898389819A810197F1F79A8389835C
:103D7000FE01EA58FF4F8081982F9F5F8AE262E040
:103D8000492F0E94360CDE01AA58BF4FFE01EA58A7
:103D9000FF4F80818F5F8C93FE01EE56FF4F808135
:103DA00091818833910530F082E067E041E00E9424
:103DB000D2080FC982E067E040E00E94D20809C93A
:103DC000DF93CF93CDB7DEB767970FB6F894DEBF1A
:103DD0000FBECDBF998B888B7B8B6A8B5D8B4C8B99
:103DE0001F86EA89FB898081813019F481E00E9475
:103DF000020CEA89FB8982E0808383E091E061E044
:103E000041E00E94480F84E191E062E041E00E94BD
:103E1000480F85E291E063E041E00E94480F8DE2A7
:103E200091E064E041E00E94480FE889F9898081CF
:103E3000882F90E064E042E10E947A0F0E94D21540
:103E40008F878F850E94A2068F85282F30E03F8BB9
:103E50002E8B8E899F898233910521F12E893F898E
:103E60002333310534F48E899F898133910561F0C4
:103E700038C02E893F892333310511F18E899F89FE
:103E80008433910511F12DC0E889F98980818E3143
:103E900008F0A6C0E889F98980818F5FE889F989EF
:103EA00080839EC0E889F9898081833108F498C0B5
:103EB000E889F98980818150E889F989808390C0F7
:103EC000E889F9898EE180838BC081E00E94020C31
:103ED000EA89FB8981E08083EC89FD898FEF80830B
:103EE0007FC08F858F3F09F47BC081E00E94020C68
:103EF00081EB90E064E041E00E94480F80E090E0B8
:103F0000AFE2B4E48B879C87AD87BE876B857C85E9
:103F10008D859E8520E030E04AEF54E40E941F0228
:103F2000DC01CB018F839887A987BA876F81788559
:103F300089859A8520E030E040E85FE30E9425040F
:103F400088232CF481E090E09E838D833FC06F81B5
:103F5000788589859A8520E03FEF4FE757E40E94F6
:103F6000C50318164CF56B857C858D859E8520E0F4
:103F700030E040E251E40E941F02DC01CB01BC01B1
:103F8000CD010E944900DC01CB019E838D830FC0CF
:103F900088EC90E09C838B838B819C810197F1F767
:103FA0009C838B838D819E8101979E838D838D81E0
:103FB0009E81009769F714C06F81788589859A85FD
:103FC0000E944900DC01CB019E838D838D819E81FF
:103FD0009A83898389819A810197F1F79A838983EA
:103FE00067960FB6F894DEBF0FBECDBFCF91DF91BD
:103FF0000895DF93CF93CDB7DEB767970FB6F894E8
:10400000DEBF0FBECDBF998B888B7B8B6A8B5D8BA0
:104010004C8B1F86EA89FB898081813019F481E00D
:104020000E94020CE889F98980818A3028F480E2B4
:1040300064E043E10E94360CEA89FB8982E08083D8
:1040400084E391E061E041E00E94480F85E491E063
:1040500062E041E00E94480F85E291E063E041E0C8
:104060000E94480F8DE291E064E041E00E94480F19
:10407000E889F9898081882F90E064E042E10E941C
:104080007A0F0E94D2158F878F850E94A2068F8596
:10409000282F30E03F8B2E8B8E899F8982339105AC
:1040A00021F12E893F892333310534F48E899F898C
:1040B0008133910561F03CC02E893F89233331055E
:1040C00011F18E899F898433910531F131C0E889DE
:1040D000F98980818A3008F0AAC0E889F98980814D
:1040E0008F5FE889F9898083A2C0E889F989808196
:1040F000882309F49CC0E889F98980818150E88986
:10410000F989808394C0E889F989108280E264E0AB
:1041100043E10E94360C8BC081E00E94020CEA89C8
:10412000FB8981E08083EC89FD898FEF80837FC0EC
:104130008F858F3F09F47BC081E00E94020C81EBE8
:1041400090E064E041E00E94480F80E090E0AFE240
:10415000B4E48B879C87AD87BE876B857C858D8516
:104160009E8520E030E04AEF54E40E941F02DC010B
:10417000CB018F839887A987BA876F8178858985D6
:104180009A8520E030E040E85FE30E942504882320
:104190002CF481E090E09E838D833FC06F81788511
:1041A00089859A8520E03FEF4FE757E40E94C503D9
:1041B00018164CF56B857C858D859E8520E030E05A
:1041C00040E251E40E941F02DC01CB01BC01CD01A1
:1041D0000E944900DC01CB019E838D830FC088ECD7
:1041E00090E09C838B838B819C810197F1F79C836A
:1041F0008B838D819E8101979E838D838D819E818E
:10420000009769F714C06F81788589859A850E9427
:104210004900DC01CB019E838D838D819E819A8331
:10422000898389819A810197F1F79A8389836796B7
:104230000FB6F894DEBF0FBECDBFCF91DF910895CA
:104240000F931F93DF93CF93CDB7DEB769970FB668
:10425000F894DEBF0FBECDBF998B888B7B8B6A8BAA
:104260005D8B4C8B3F8B2E8B198F088F1F86E889B7
:10427000F9898081813019F481E00E94020CE8897B
:10428000F98982E08083E88DF98D808191818A307F
:10429000910528F480E261E040E10E94360C86E559
:1042A00091E061E041E00E94480FE88DF98D808146
:1042B000918161E04FE00E947A0F85E691E064E031
:1042C00041E00E94480F0E94D2158F87E88DF98D3A
:1042D000808191810E94A206E88DF98D8081918173
:1042E0008630910528F4EC89FD898AE080837FC0BF
:1042F000E88DF98D808191818A30910528F4EC89CF
:10430000FD8988E0808373C0E88DF98D808191817B
:104310008031910528F4EC89FD8986E0808367C0AF
:10432000E88DF98D808191818531910548F4EC8982
:10433000FD8983E08083EE89FF898DE1808357C00A
:10434000E88DF98D808191818831910540F4EC8967
:10435000FD891082EE89FF898DE1808348C0E88D58
:10436000F98D808191818831910580F0E88DF98DFA
:10437000808191818E31910548F4EE89FF898AE12F
:104380008083EC89FD8982E1808331C0E88DF98DDD
:10439000808191818332910560F4E88DF98D80816F
:1043A00091818E31910528F0EE89FF8988E1808323
:1043B0001EC0E88DF98D808191818832910560F46D
:1043C000E88DF98D808191818332910528F0EE8905
:1043D000FF8986E180830BC0E88DF98D8081918112
:1043E0008832910520F0EE89FF8982E180838F85F4
:1043F000823361F481E00E94020CE889F98981E04E
:104400008083EA89FB898FEF80837FC08F858F3F10
:1044100009F47BC08CE691E063E044E00E94480F21
:1044200080E090E0A8E4B4E48B879C87AD87BE87EA
:104430006B857C858D859E8520E030E04AEF54E4D5
:104440000E941F02DC01CB018F839887A987BA875E
:104450006F81788589859A8520E030E040E85FE3C8
:104460000E94250488232CF481E090E09E838D83B4
:104470003FC06F81788589859A8520E03FEF4FE7BF
:1044800057E40E94C50318164CF56B857C858D8515
:104490009E8520E030E040E251E40E941F02DC01F2
:1044A000CB01BC01CD010E944900DC01CB019E8300
:1044B0008D830FC088EC90E09C838B838B819C81E3
:1044C0000197F1F79C838B838D819E8101979E8359
:1044D0008D838D819E81009769F714C06F817885E7
:1044E00089859A850E944900DC01CB019E838D83DA
:1044F0008D819E819A83898389819A810197F1F7C1
:104500009A83898381E00E94020C69960FB6F89421
:10451000DEBF0FBECDBFCF91DF911F910F910895E8
:10452000DF93CF93CDB7DEB764970FB6F894DEBFB5
:104530000FBECDBF988B8F877A8B698BEF85F889FB
:104540008081813021F4EF85F88982E08083EF85D6
:10455000F8898081823039F4EF85F88983E080839F
:1045600081E00E94020CEF85F8898081833011F58B
:104570008AE791E061E041E00E94480F83E891E022
:1045800062E041E00E94480F8CE891E063E041E086
:104590000E94480F85E991E064E041E00E94480FE5
:1045A0008EE991E064E04AE00E94480F0E94D21533
:1045B0008093DD018091DD010E94A2068091DD01E2
:1045C000282F30E03C8B2B8B8B899C898333910582
:1045D00009F47BC02B893C89243331055CF48B8939
:1045E0009C898133910599F02B893C8922333105CF
:1045F000E9F1D5C08B899C898433910509F494C075
:104600002B893C892533310509F4BDC0C8C0EF852D
:10461000F88980818330C9F4EF85F88984E080834C
:1046200081E00E94020C85EA91E061E041E00E9495
:10463000480F8FEA91E062E041E00E94480F8AEB68
:1046400091E063E041E00E94480F0E94D215809300
:10465000DC018091DC01833321F4EF85F88982E06D
:1046600080838091DC010E94A20619C1EF85F88940
:1046700080818330C9F4EF85F88984E0808381E00C
:104680000E94020C85EA91E061E041E00E94480F3F
:104690008FEA91E062E041E00E94480F8AEB91E0EE
:1046A00063E041E00E94480F0E94D2158093DC0134
:1046B0008091DC01833321F4EF85F88982E08083E7
:1046C0008091DC010E94A206EAC0EF85F889808112
:1046D0008330C9F4EF85F88984E0808381E00E940B
:1046E000020C85EA91E061E041E00E94480F8FEA08
:1046F00091E062E041E00E94480F8AEB91E063E0C4
:1047000041E00E94480F0E94D2158093DC01809105
:10471000DC01833321F4EF85F88982E08083809186
:10472000DC010E94A206BBC0EF85F889808183303E
:10473000C9F4EF85F88984E0808381E00E94020C4F
:1047400085EA91E061E041E00E94480F8FEA91E044
:1047500062E041E00E94480F8AEB91E063E041E0B3
:104760000E94480F0E94D2158093DC018091DC01E9
:10477000833321F4EF85F88982E080838091DC0126
:104780000E94A2068CC0EF85F88981E08083E989C8
:10479000FA898FEF808381E00E94020C80C08091B3
:1047A000DD018F3F09F47BC081E00E94020C81EBA8
:1047B00090E061E041E00E94480F80E090E0AFE2CD
:1047C000B4E48B879C87AD87BE876B857C858D85A0
:1047D0009E8520E030E04AEF54E40E941F02DC0195
:1047E000CB018F839887A987BA876F817885898560
:1047F0009A8520E030E040E85FE30E9425048823AA
:104800002CF481E090E09E838D833FC06F8178859A
:1048100089859A8520E03FEF4FE757E40E94C50362
:1048200018164CF56B857C858D859E8520E030E0E3
:1048300040E251E40E941F02DC01CB01BC01CD012A
:104840000E944900DC01CB019E838D830FC088EC60
:1048500090E09C838B838B819C810197F1F79C83F3
:104860008B838D819E8101979E838D838D819E8117
:10487000009769F714C06F81788589859A850E94B1
:104880004900DC01CB019E838D838D819E819A83BB
:10489000898389819A810197F1F79A838983649644
:1048A0000FB6F894DEBF0FBECDBFCF91DF91089554
:1048B000629FD001739FF001829FE00DF11D649F04
:1048C000E00DF11D929FF00D839FF00D749FF00D90
:1048D000659FF00D9927729FB00DE11DF91F639F31
:1048E000B00DE11DF91FBD01CF0111240895AA1BD0
:1048F000BB1B51E107C0AA1FBB1FA617B70710F0CB
:10490000A61BB70B881F991F5A95A9F780959095FC
:10491000BC01CD010895A1E21A2EAA1BBB1BFD010B
:104920000DC0AA1FBB1FEE1FFF1FA217B307E4078E
:10493000F50720F0A21BB30BE40BF50B661F771FE6
:10494000881F991F1A9469F76095709580959095C6
:104950009B01AC01BD01CF0108952F923F924F9270
:104960005F926F927F928F929F92AF92BF92CF92FF
:10497000DF92EF92FF920F931F93CF93DF93CDB708
:10498000DEB7CA1BDB0B0FB6F894DEBF0FBECDBF80
:1049900009942A88398848885F846E847D848C8451
:1049A0009B84AA84B984C884DF80EE80FD800C815A
:1049B0001B81AA81B981CE0FD11D0FB6F894DEBF3D
:1049C0000FBECDBFED010895FC0188279927E8941B
:1049D00021912032E9F3293010F02E30C8F32B3228
:1049E00041F02D3239F4689404C00E940925820FE9
:1049F000911D219120532A30C0F31EF4909581958A
:104A00009F4F0895DC0101C06D9341505040E0F785
:104A100008957AE0979F902D879F802D910D112406
:104A20000895AEE0B0E0E7E1F5E20C94BB240D8917
:104A30001E8986E08C831A8309838FEF9FE79E830C
:104A40008D839E01275E3F4FCE0101966F89788D41
:104A5000A9010E9435252F813885020F131FF80107
:104A600010822E96E4E00C94D724ABE0B0E0EBE3A8
:104A7000F5E20C94AD243C012B015A01FC01178294
:104A80001682838181FD03C06FEF7FEFC6C19AE07C
:104A9000892E1E010894211C311CF3012381F2018F
:104AA00023FD859123FF81912F01882309F4B2C151
:104AB000853239F423FD859123FF81912F018532C1
:104AC00029F490E0B3010E942827E7CF982FFF2414
:104AD000EE249924FFE1FF15D0F09B3269F09C325F
:104AE00028F4903259F0933291F40EC09D3249F07F
:104AF000903369F441E024C052E0F52A84E0F82ABA
:104B000028C098E0F92A25C0E0E1FE2A22C0F7FC7F
:104B100029C0892F80538A3070F4F6FE05C0989C16
:104B2000902C1124980E15C0E89CE02C1124E80E5E
:104B3000F0E2FF2A0EC09E3229F4F6FC6BC140E47D
:104B4000F42A07C09C3619F450E8F52A02C09836BA
:104B500049F4F20123FD959123FF91912F019923AF
:104B600009F0B8CF892F8554833018F080528330F4
:104B700038F444E050E0A40EB51E5FE359830FC043
:104B8000933631F0933779F0933509F056C020C051
:104B9000F5018081898342E050E0A40EB51E6101D9
:104BA00001E010E012C0F501C080D180F6FC03C026
:104BB0006FEF7FEF02C0692D70E042E050E0A40E7D
:104BC000B51EC6010E941D278C015FE7F52214C0A7
:104BD000F501C080D180F6FC03C06FEF7FEF02C00B
:104BE000692D70E042E050E0A40EB51EC6010E949F
:104BF00012278C0150E8F52AF3FE07C01AC080E2A4
:104C000090E0B3010E942827EA948E2D90E00817C7
:104C10001907A8F30EC0F601F7FC8591F7FE819104
:104C20006F0190E0B3010E942827E110EA9401503F
:104C300010400115110579F7EAC0943611F0993644
:104C400069F5F7FE08C0F501208131814281538169
:104C500084E090E00AC0F501808191819C014427A5
:104C600037FD4095542F82E090E0A80EB91E9FE6D4
:104C7000F92257FF09C050954095309521953F4F37
:104C80004F4F5F4FE0E8FE2ACA01B901A1012AE0B7
:104C900030E00E945427D82ED21840C0953729F40E
:104CA0001F2D1F7E2AE030E01DC01F2D197F9F366B
:104CB00061F0903720F4983509F0ACC00FC0903700
:104CC00039F0983709F0A6C004C028E030E00AC0E7
:104CD000106114FD146020E130E004C014FD166082
:104CE00020E132E017FF08C0F50160817181828107
:104CF000938144E050E008C0F50180819181BC01BE
:104D000080E090E042E050E0A40EB51EA1010E94B8
:104D10005427D82ED2188FE7F82EF122F6FE0BC0BA
:104D20005EEFF522D91438F4F4FE07C0F2FC05C09A
:104D30008FEEF82202C01D2D01C0192DF4FE0DC00A
:104D4000FE01ED0DF11D8081803319F499EEF922F9
:104D500008C01F5FF2FE05C003C08F2D867809F0E2
:104D60001F5F0F2DF3FC14C0F0FE0FC01E1510F0D6
:104D70009D2C0BC09D2C9E0C911A1E2D06C080E20E
:104D800090E0B3010E9428271F5F1E15C0F304C0E6
:104D90001E1510F4E11A01C0EE2404FF0FC080E3D9
:104DA00090E0B3010E94282702FF1DC001FD03C04F
:104DB00088E790E00EC088E590E00BC0802F8678F1
:104DC00091F001FF02C08BE201C080E2F7FC8DE2AE
:104DD00090E0B3010E94282706C080E390E0B30171
:104DE0000E9428279A94D914C0F3DA94F101ED0DAA
:104DF000F11D808190E0B3010E942827DD20A9F7F2
:104E000006C080E290E0B3010E942827EA94EE20D9
:104E1000C1F743CEF30166817781CB012B96E2E1A6
:104E20000C94C924FC010590615070400110D8F722
:104E3000809590958E0F9F1F0895FC0161507040E2
:104E400001900110D8F7809590958E0F9F1F0895BF
:104E50000F931F93CF93DF938C01EB018B8181FF25
:104E60001BC082FF0DC02E813F818C819D81281740
:104E7000390764F4E881F9810193F983E88306C076
:104E8000E885F985802F0995892B31F48E819F81E2
:104E900001969F838E8302C00FEF1FEFC801DF9141
:104EA000CF911F910F910895FA01AA27283051F14F
:104EB000203181F1E8946F936E7F6E5F7F4F8F4F4B
:104EC0009F4FAF4FB1E03ED0B4E03CD0670F781FAA
:104ED000891F9A1FA11D680F791F8A1F911DA11D8F
:104EE0006A0F711D811D911DA11D20D009F46894C8
:104EF0003F912AE0269F11243019305D3193DEF670
:104F0000CF010895462F4770405D4193B3E00FD025
:104F1000C9F7F6CF462F4F70405D4A3318F0495D10
:104F200031FD4052419302D0A9F7EACFB4E0A695F3
:104F30009795879577956795BA95C9F70097610515
:104F4000710508959B01AC010A2E0694579547956B
:104F500037952795BA95C9F7620F731F841F951F60
:084F6000A01D0895F894FFCF95
:104F6800256900456E7465722050617373776F729E
:104F780064203A0057656C636F6D6500312D416997
:104F88007220436F6E646974696F6E657200322DAA
:104F980048656174657200332D4175746F205573CF
:104FA8006500342D526F6F6D7300352D4578697427
:104FB80000496E76616C69642043686F73652000F0
:104FC8004E6F204D6F72652054726965730057618A
:104FD8006974203230205365636F6E640057726FB6
:104FE8006E67207061737300205472696573204C7A
:104FF800656674005345542050617373776F72640B
:10500800203A00312D4C6F776572207468652074E2
:10501800656D7000322D5261697365207468652072
:1050280074656D7000332D53544F502000342D4259
:1050380061636B00312D5261697365207468652066
:1050480074656D7000322D4C6F77657220746865D9
:105058002074656D700054656D7065726174757249
:1050680065203A2000322D4261636B00496E7661FB
:105078006C69642043686F736500312D526F6F6DE2
:10508800203100322D526F6F6D203200332D526F58
:105098006F6D203300342D526F6F6D203400352D25
:1050A8004261636B00312D5475726E204F6E003271
:1050B8002D5475726E204F666600332D4261636B06
:1050C800000000000000000000313233343536376C
:0C50D800383963303D0001020304050676
:00000001FF
